000000184572010100720101007201010070000246HIPERCARD002.04                                                                                                                                                                                                                                                   

10016538381213001955303/06PAG20100710201010062010100920101011+0000000039900+0000000000000+000000000665000300+000000000019900000+0000000000000+0000000006451+00000000000000341038590000022929    00001 000000000013R2P+0000+0000+0000+0000N                                                                  

200165383812130019553384100167415387002020100710+0000000039900+0000000006650+0000000000000                              011223000058ELEONL760030350010000013+0000000006650+0000000006451PRC+000000000645106                                                                                                 

10016538381213001955503/03PAG20100712201010062010101120101011+0000000029000+0000000000000+000000000966600300+000000000028900000+0000000000000+0000000009377+00000000000000341038590000022929    00001 000000000014R2P+0000+0000+0000+0000N                                                                  

200165383812130019555384100147763983403220100712+0000000029000+0000000009666+0000000000000                              044686000061ELEONL760030350010000014+0000000009666+0000000009377PRC+000000000937703                                                                                                 

10016538381213001958302/03PAG20100809201010062010100920101011+0000000066130+0000000000000+000000002204300300+000000000066100000+0000000000000+0000000021382+00000000000000341038590000022929    00003 000000000031R2P+0000+0000-0001-0001N                                                                  

200165383812130019583384100134818326502720100809+0000000034900+0000000011633+0000000000000                              012492000132ELEONL760030350010000031+0000000011633+0000000011285PRC+000000001128503                                                                                                 

200165383812130019583384100169970302402620100809+0000000020430+0000000006810+0000000000000                              015981000133ELEONL760030350010000031+0000000006810+0000000006606PRC+000000000660603                                                                                                 

200165383812130019583384100195240596002120100809+0000000010800+0000000003600+0000000000000                              070643000131ELEONL760030350010000031+0000000003600+0000000003492PRC+000000000349203                                                                                                 

10016538381213001961401/03PAG20100909201010062010101020101011+0000000107050+0000000000000+000000003568400300+000000000107000000+0000000000000+0000000034614+00000000000000341038590000022929    00005 000000000011R2P+0002-0002+0000-0003N                                                                  

200165383812130019614384100148534724304120100909+0000000033450+0000000011150+0000000000000                              078295000059ELEONL760030350010000011+0000000011150+0000000010816PRC+000000001081603                                                                                                 

200165383812130019614384100157614000506920100909+0000000012800+0000000004266+0000000000000                              028775000063ELEONL760030350010000011+0000000004268+0000000004139PRC+000000000414003                                                                                                 

200165383812130019614384100168518139002620100909+0000000029990+0000000009996+0000000000000                              011960000062ELEONL760030350010000011+0000000009998+0000000009697PRC+000000000969903                                                                                                 

200165383812130019614384100168637669002820100909+0000000020910+0000000006970+0000000000000                              065023000064ELEONL760030350010000011+0000000006970+0000000006761PRC+000000000676103                                                                                                 

200165383812130019614384100176170685005920100909+0000000009900+0000000003300+0000000000000                              075173000060ELEONL760030350010000011+0000000003300+0000000003201PRC+000000000320103                                                                                                 

10016538381213001963600/03PRE20101005000000002010110500000000+0000000013380+0000000000000+000000000446000300+000000000013300000+0000000000000+0000000004327+00000000000000341038590000022929    00002 000000000028R2P+0000+0000+0000+0000N                                                                  

200165383812130019636384100181743612804420101005+0000000009000+0000000003000+0000000000000                              079347000134ELEONL760030350010000028+0000000003000+0000000002910PRC+000000000291003                                                                                                 

200165383812130019636384100196549485102020101005+0000000004380+0000000001460+0000000000000                              092722000135ELEONL760030350010000028+0000000001460+0000000001417PRC+000000000141703                                                                                                 

30016538381213001963620101005000000002010120502/03+000000000446000300+000000000013300000+0000000000000+00000000043272011010403/03+000000000446000300+000000000013300000+0000000000000+0000000004327                                                                               +0000+0000                

10016538381213005946406/10PAG20100412201010062010101020101011+0000000059000+0000000000000+000000000590000300+000000000017700000+0000000000000+0000000005723+00000000000000341038590000022929    00001 000000000100R2P+0000+0000+0000+0000N                                                                  

200165383812130059464384100135560527704020100412+0000000059000+0000000005900+0000000000000                              022184000327ELEONL760030350010000100+0000000005900+0000000005723PRC+000000000572310                                                                                                 

10016538381213005949405/10PAG20100512201010062010101020101011+0000000196900+0000000000000+000000001969000100+000000000019600000+0000000000000+0000000019494+00000000000000341038590000022929    00002 000000000118R2P+0000+0000+0000+0000N                                                                  

200165383812130059494384100135418909102820100512+0000000173500+0000000017350+0000000000000                              087257000401ELEONL760030350010000118+0000000017350+0000000017177PRC+000000001717710                                                                                                 

200165383812130059494384100144265958802520100512+0000000023400+0000000002340+0000000000000                              018272000404ELEONL760030350010000118+0000000002340+0000000002317PRC+000000000231710                                                                                                 

10016538381213005952504/05PAG20100612201010062010101120101011+0000000062500+0000000000000+000000001250000300+000000000037500000+0000000000000+0000000012125+00000000000000341038590000022929    00001 000000000001R2P+0000+0000+0000+0000N                                                                  

200165383812130059525384100144261758305020100612+0000000062500+0000000012500+0000000000000                              038431000012ELEONL760030350010000001+0000000012500+0000000012125PRC+000000001212505                                                                                                 

10016538381213005955303/10PAG20100710201010062010100920101011+0000000292100+0000000000000+000000002921000300+000000000087600000+0000000000000+0000000028334+00000000000000341038590000022929    00004 000000000013R2P+0000+0000-0001-0001N                                                                  

200165383812130059553384100135194172802120100710+0000000079800+0000000007980+0000000000000                              071347000059ELEONL760030350010000013+0000000007980+0000000007741PRC+000000000774110                                                                                                 

200165383812130059553384100168520150103420100710+0000000066000+0000000006600+0000000000000                              021672000056ELEONL760030350010000013+0000000006600+0000000006402PRC+000000000640210                                                                                                 

200165383812130059553384100176664270204020100710+0000000134400+0000000013440+0000000000000                              007256000055ELEONL760030350010000013+0000000013440+0000000013037PRC+000000001303710                                                                                                 

200165383812130059553384100180669788002820100710+0000000011900+0000000001190+0000000000000                              029208000057ELEONL760030350010000013+0000000001190+0000000001155PRC+000000000115510                                                                                                 

10016538381213005955503/05PAG20100712201010062010101120101011+0000000020500+0000000000000+000000000410000300+000000000012300000+0000000000000+0000000003977+00000000000000341038590000022929    00001 000000000014R2P+0000+0000+0000+0000N                                                                  

200165383812130059555384100168769298702820100712+0000000020500+0000000004100+0000000000000                              089746000062ELEONL760030350010000014+0000000004100+0000000003977PRC+000000000397705                                                                                                 

10016538383213001958502/04PAG20100811201010062010101120101011+0000000145400+0000000000000+000000003635000300+000000000109000000+0000000000000+0000000035260+00000000000000341038590000022929    00002 000020000001R2P+0000+0000+0000+0000N                                                                  

200165383832130019585384100178695653201420100811+0000000072700+0000000018175+0000000000000                              004503000006ELEONL760030380010000001+0000000018175+0000000017630PRC+000000001763004                                                                                                 

200165383832130019585384100178695653201420100811+0000000072700+0000000018175+0000000000000                              005275000007ELEONL760030380010000001+0000000018175+0000000017630PRC+000000001763004                                                                                                 

100165383838880019585     AJU20100811201010062010101120101011-0000000036350+0000000000000+000000000000000000+000000000000000000+0000000000000-0000000035260+00000000000000341038590000022929    00002 000000000000R0 +0000+0000+0000+0000                                                                   

5001653838388800195853841001786956532   201010112010101120100811-0000000018175-00000000176300101000006A54SOLICITACAO DE CANCELAMENTO VENDA                           NC: 1786956532  LT: 19585  ND: 000006 NP:01 UP:02                                         0000000                                      

5001653838388800195853841001786956532   201010112010101120100811-0000000018175-00000000176300101000007A54SOLICITACAO DE CANCELAMENTO VENDA                           NC: 1786956532  LT: 19585  ND: 000007 NP:01 UP:02                                         0000000                                      

10066538383213001961401/10PAG20100909201010062010101020101011+0000000034900+0000000000000+000000000349000300+000000000010400000+0000000000000+0000000003386+00000000000000341038590000022929    00001 000000000006R2P+0000+0000+0000+0000N                                                                  

200665383832130019614384100602807875505020100909+0000000034900+0000000003490+0000000000000                              068534000024ELEONL760030380010000006+0000000003490+0000000003386PRC+000000000338610                                                                                                 

10016538384205001961500/00PAG20100910201010062010101120101011+0000000003490+0000000000000+000000000349000250+000000000008700000+0000000000000+0000000003403+00000000000000341038590000022929    00001 000000000027R2U+0000+0000+0000+0000N                                                                  

200165383842050019615384100150786719802520100910+0000000003490+0000000003490+0000000000000                              047979000133ELEONL760030340010000027+0000000003490+0000000003403PRC+000000000340300                                                                                                 

10016538384213001952304/05PAG20100610201010062010100920101011+0000000011000+0000000000000+000000000220000300+000000000006600000+0000000000000+0000000002134+00000000000000341038590000022929    00001 000000000136R2P+0000+0000+0000+0000N                                                                  

200165383842130019523384100175622949705220100610+0000000011000+0000000002200+0000000000000                              006311000430ELEONL760030340010000136+0000000002200+0000000002134PRC+000000000213405                                                                                                 

10016538384213001952504/06PAG20100612201010062010101120101011+0000000017900+0000000000000+000000000298300300+000000000008900000+0000000000000+0000000002894+00000000000000341038590000022929    00001 000000000137R2P+0000+0000+0000+0000N                                                                  

200165383842130019525384100195060814701020100612+0000000017900+0000000002983+0000000000000                              051094000433ELEONL760030340010000137+0000000002983+0000000002894PRC+000000000289406                                                                                                 

10016538384213001955303/04PAG20100710201010062010100920101011+0000000029900+0000000000000+000000000747500300+000000000022400000+0000000000000+0000000007251+00000000000000341038590000022929    00001 000000000153R2P+0000+0000+0000+0000N                                                                  

200165383842130019553384100173659594301920100710+0000000029900+0000000007475+0000000000000                              040577000481ELEONL760030340010000153+0000000007475+0000000007251PRC+000000000725104                                                                                                 

10016538384213001958402/03PAG20100810201010062010101020101011+0000000050700+0000000000000+000000001690000300+000000000050700000+0000000000000+0000000016393+00000000000000341038590000022929    00002 000000000011R2P+0000+0000+0000+0000N                                                                  

200165383842130019584384100165034440301020100810+0000000025200+0000000008400+0000000000000                              099170000054ELEONL760030340010000011+0000000008400+0000000008148PRC+000000000814803                                                                                                 

200165383842130019584384100165034440301020100810+0000000025500+0000000008500+0000000000000                              099864000055ELEONL760030340010000011+0000000008500+0000000008245PRC+000000000824503                                                                                                 

10016538384213001958502/03PAG20100811201010062010101120101011+0000000073900+0000000000000+000000002463300300+000000000073800000+0000000000000+0000000023895+00000000000000341038590000022929    00002 000000000012R2P+0000+0000+0000+0000N                                                                  

200165383842130019585384100146828127202120100811+0000000040000+0000000013333+0000000000000                              006180000057ELEONL760030340010000012+0000000013333+0000000012934PRC+000000001293403                                                                                                 

200165383842130019585384100154531928303120100811+0000000033900+0000000011300+0000000000000                              027532000058ELEONL760030340010000012+0000000011300+0000000010961PRC+000000001096103                                                                                                 

10016538384213001961201/10PAG20100908201010062010100920101011+0000000043500+0000000000000+000000000435000300+000000000013000000+0000000000000+0000000004220+00000000000000341038590000022929    00001 000000000026R2P+0000+0000+0000+0000N                                                                  

200165383842130019612384100146785851702420100908+0000000043500+0000000004350+0000000000000                              011408000123ELEONL760030340010000026+0000000004350+0000000004220PRC+000000000422010                                                                                                 

10016538384213001963600/03PRE20101005000000002010110500000000+0000000007900+0000000000000+000000000263400300+000000000007900000+0000000000000+0000000002555+00000000000000341038590000022929    00001 000000000042R2P+0001+0000+0000+0000N                                                                  

200165383842130019636384100177803061801020101005+0000000007900+0000000002633+0000000000000                              013349000199ELEONL760030340010000042+0000000002634+0000000002555PRC+000000000255503                                                                                                 

30016538384213001963620101005000000002010120502/03+000000000263300300+000000000007800000+0000000000000+00000000025552011010403/03+000000000263300300+000000000007800000+0000000000000+0000000002555                                                                               +0000+0000                

10016538384213005949505/05PAG20100513201010062010101120101011+0000000014000+0000000000000+000000000280000100+000000000002800000+0000000000000+0000000002772+00000000000000341038590000022929    00001 000000000119R2P+0000+0000+0000+0000N                                                                  

200165383842130059495384100170307140601420100513+0000000014000+0000000002800+0000000000000                              054102000375ELEONL760030340010000119+0000000002800+0000000002772PRC+000000000277205                                                                                                 

10016538384213005952504/10PAG20100612201010062010101120101011+0000000035400+0000000000000+000000000354000300+000000000010600000+0000000000000+0000000003434+00000000000000341038590000022929    00001 000000000137R2P+0000+0000+0000+0000N                                                                  

200165383842130059525384100161964672004320100612+0000000035400+0000000003540+0000000000000                              053243000432ELEONL760030340010000137+0000000003540+0000000003434PRC+000000000343410                                                                                                 

10016538384213005955303/06PAG20100710201010062010100920101011+0000000027500+0000000000000+000000000458300300+000000000013700000+0000000000000+0000000004446+00000000000000341038590000022929    00001 000000000153R2P+0000+0000+0000+0000N                                                                  

200165383842130059553384100135329965902120100710+0000000027500+0000000004583+0000000000000                              085854000480ELEONL760030340010000153+0000000004583+0000000004446PRC+000000000444606                                                                                                 

10016538384213005963600/10PRE20101005000000002010110500000000+0000000199700+0000000000000+000000001997000300+000000000059900000+0000000000000+0000000019371+00000000000000341038590000022929    00003 000000000042R2P+0000+0000-0001-0001N                                                                  

200165383842130059636384100141398574002820101005+0000000145000+0000000014500+0000000000000                              000258000200ELEONL760030340010000042+0000000014500+0000000014065PRC+000000001406510                                                                                                 

200165383842130059636384100171345681501420101005+0000000026200+0000000002620+0000000000000                              052549000198ELEONL760030340010000042+0000000002620+0000000002542PRC+000000000254210                                                                                                 

200165383842130059636384100171345681501420101005+0000000028500+0000000002850+0000000000000                              052451000197ELEONL760030340010000042+0000000002850+0000000002765PRC+000000000276510                                                                                                 

30016538384213005963620101005000000002010120502/10+000000001997000300+000000000059900000+0000000000000+00000000193712011010403/10+000000001997000300+000000000059900000+0000000000000+00000000193712011020304/10+000000001997000300+000000000059900000+0000000000000+0000000019371+0000+0000+0000           

30016538384213005963620101005000000002011030505/10+000000001997000300+000000000059900000+0000000000000+00000000193712011040406/10+000000001997000300+000000000059900000+0000000000000+00000000193712011050407/10+000000001997000300+000000000059900000+0000000000000+0000000019371+0000+0000+0000           

30016538384213005963620101005000000002011060308/10+000000001997000300+000000000059900000+0000000000000+00000000193712011070309/10+000000001997000300+000000000059900000+0000000000000+00000000193712011080210/10+000000001997000300+000000000059900000+0000000000000+0000000019371+0000+0000+0000           

10016538385213001936909/10PAG20100112201010062010101020101011+0000000109000+0000000000000+000000001090000300+000000000032700000+0000000000000+0000000010573+00000000000000341038590000022929    00001 000000000062R2P+0000+0000+0000+0000N                                                                  

200165383852130019369384100135408296302320100111+0000000109000+0000000010900+0000000000000                              019903000205ELEONL760030390010000062+0000000010900+0000000010573PRC+000000001057310                                                                                                 

10016538385213001940008/10PAG20100212201010062010101120101011+0000000035400+0000000000000+000000000354000300+000000000010600000+0000000000000+0000000003434+00000000000000341038590000022929    00001 000000000076R2P+0000+0000+0000+0000N                                                                  

200165383852130019400384100135019532102920100212+0000000035400+0000000003540+0000000000000                              054127000244ELEONL760030390010000076+0000000003540+0000000003434PRC+000000000343410                                                                                                 

10016538385213001952504/10PAG20100612201010062010101120101011+0000000049900+0000000000000+000000000499000300+000000000014900000+0000000000000+0000000004841+00000000000000341038590000022929    00002 000000000128R2P+0000+0000+0000+0000N                                                                  

200165383852130019525384100148080588002920100612+0000000030000+0000000003000+0000000000000                              022091000399ELEONL760030390010000128+0000000003000+0000000002910PRC+000000000291010                                                                                                 

200165383852130019525384100191213217301120100612+0000000019900+0000000001990+0000000000000                              000342000398ELEONL760030390010000128+0000000001990+0000000001931PRC+000000000193110                                                                                                 

10016538385213001955303/03PAG20100710201010062010100920101011+0000000009900+0000000000000+000000000330000300+000000000009900000+0000000000000+0000000003201+00000000000000341038590000022929    00001 000000000010R2P+0000+0000+0000+0000N                                                                  

200165383852130019553384100146493788202420100710+0000000009900+0000000003300+0000000000000                              083713000039ELEONL760030390010000010+0000000003300+0000000003201PRC+000000000320103                                                                                                 

10016538385213001955503/10PAG20100712201010062010101120101011+0000000067800+0000000000000+000000000678000300+000000000020300000+0000000000000+0000000006577+00000000000000341038590000022929    00001 000000000011R2P+0000+0000+0000+0000N                                                                  

200165383852130019555384100135475112103720100712+0000000067800+0000000006780+0000000000000                              090082000044ELEONL760030390010000011+0000000006780+0000000006577PRC+000000000657710                                                                                                 

10016538385213001958302/10PAG20100809201010062010100920101011+0000000022900+0000000000000+000000000229000300+000000000006800000+0000000000000+0000000002222+00000000000000341038590000022929    00001 000000000028R2P+0000+0000+0000+0000N                                                                  

200165383852130019583384100165238720701820100809+0000000022900+0000000002290+0000000000000                              036525000111ELEONL760030390010000028+0000000002290+0000000002222PRC+000000000222210                                                                                                 

10016538385213001958402/02PAG20100810201010062010101020101011+0000000034500+0000000000000+000000001725000300+000000000051700000+0000000000000+0000000016733+00000000000000341038590000022929    00001 000000000029R2P+0000+0000+0000+0000N                                                                  

200165383852130019584384100165162473601420100810+0000000034500+0000000017250+0000000000000                              083460000114ELEONL760030390010000029+0000000017250+0000000016733PRC+000000001673302                                                                                                 

10016538385213001958502/03PAG20100811201010062010101120101011+0000000042005+0000000000000+000000001400100300+000000000042000000+0000000000000+0000000013581+00000000000000341038590000022929    00001 000000000030R2P+0000+0000+0000+0000N                                                                  

200165383852130019585606282191409936001120100811+0000000042005+0000000014001+0000000000000                              009036000117ELEONL760030390010000030+0000000014001+0000000013581PRC+000000001358103                                                                                                 

10016538385213001961201/10PAG20100908201010062010100920101011+0000000128000+0000000000000+000000001280000300+000000000038400000+0000000000000+0000000012416+00000000000000341038590000022929    00001 000000000047R2P+0000+0000+0000+0000N                                                                  

200165383852130019612384100182748294701320100908+0000000128000+0000000012800+0000000000000                              009826000191ELEONL760030390010000047+0000000012800+0000000012416PRC+000000001241610                                                                                                 

10016538385213001961401/05PAG20100909201010062010101020101011+0000000039500+0000000000000+000000000790000300+000000000023700000+0000000000000+0000000007663+00000000000000341038590000022929    00001 000000000048R2P+0000+0000+0000+0000N                                                                  

200165383852130019614384100148078591902820100909+0000000039500+0000000007900+0000000000000                              054708000193ELEONL760030390010000048+0000000007900+0000000007663PRC+000000000766305                                                                                                 

10016538385213001961501/03PAG20100910201010062010101120101011+0000000096500+0000000000000+000000003216800300+000000000096500000+0000000000000+0000000031203+00000000000000341038590000022929    00004 000000000049R2P+0003-0002+0000-0002N                                                                  

200165383852130019615384100151733503203620100910+0000000009200+0000000003066+0000000000000                              026872000196ELEONL760030390010000049+0000000003068+0000000002975PRC+000000000297603                                                                                                 

200165383852130019615384100174420897003620100910+0000000025900+0000000008633+0000000000000                              032664000197ELEONL760030390010000049+0000000008634+0000000008375PRC+000000000837503                                                                                                 

200165383852130019615384100190770139401920100910+0000000045900+0000000015300+0000000000000                              092639000198ELEONL760030390010000049+0000000015300+0000000014841PRC+000000001484103                                                                                                 

2001653838521300196156062820224004161   20100910+0000000015500+0000000005166+0000000000000                              029996000195ELEONL760030390010000049+0000000005168+0000000005012PRC+000000000501303                                                                                                 

10016538385213001963600/05PRE20101005000000002010110500000000+0000000029000+0000000000000+000000000580000300+000000000017400000+0000000000000+0000000005626+00000000000000341038590000022929    00001 000000000068R2P+0000+0000+0000+0000N                                                                  

200165383852130019636384100196991757902020101005+0000000029000+0000000005800+0000000000000                              076177000260ELEONL760030390010000068+0000000005800+0000000005626PRC+000000000562605                                                                                                 

30016538385213001963620101005000000002010120502/05+000000000580000300+000000000017400000+0000000000000+00000000056262011010403/05+000000000580000300+000000000017400000+0000000000000+00000000056262011020304/05+000000000580000300+000000000017400000+0000000000000+0000000005626+0000+0000+0000           

30016538385213001963620101005000000002011030505/05+000000000580000300+000000000017400000+0000000000000+0000000005626                                                                                                                                                              +0000                     

10016538385213005949305/10PAG20100511201010062010100920101011+0000000099900+0000000000000+000000000999000100+000000000009900000+0000000000000+0000000009891+00000000000000341038590000022929    00001 000000000108R2P+0000+0000+0000+0000N                                                                  

200165383852130059493384100179830171401220100511+0000000099900+0000000009990+0000000000000                              083753000341ELEONL760030390010000108+0000000009990+0000000009891PRC+000000000989110                                                                                                 

10016538385213005955303/10PAG20100710201010062010100920101011+0000000154050+0000000000000+000000001540500300+000000000046200000+0000000000000+0000000014943+00000000000000341038590000022929    00003 000000000010R2P+0000+0000-0001-0001N                                                                  

200165383852130059553384100143637070905020100710+0000000037800+0000000003780+0000000000000                              037725000042ELEONL760030390010000010+0000000003780+0000000003667PRC+000000000366710                                                                                                 

200165383852130059553384100175011427202320100710+0000000060900+0000000006090+0000000000000                              012563000041ELEONL760030390010000010+0000000006090+0000000005908PRC+000000000590810                                                                                                 

200165383852130059553384100177269960501120100710+0000000055350+0000000005535+0000000000000                              074041000040ELEONL760030390010000010+0000000005535+0000000005369PRC+000000000536910                                                                                                 

10016538385213005958402/10PAG20100810201010062010101020101011+0000000089800+0000000000000+000000000898000300+000000000026900000+0000000000000+0000000008711+00000000000000341038590000022929    00002 000000000029R2P+0000+0000-0001-0001N                                                                  

200165383852130059584384100147495180203020100810+0000000031600+0000000003160+0000000000000                              075970000115ELEONL760030390010000029+0000000003160+0000000003066PRC+000000000306610                                                                                                 

200165383852130059584384100181294370601020100810+0000000058200+0000000005820+0000000000000                              041931000113ELEONL760030390010000029+0000000005820+0000000005646PRC+000000000564610                                                                                                 

10016538385213005963600/06PRE20101005000000002010110500000000+0000000136000+0000000000000+000000002267000300+000000000068000000+0000000000000+0000000021990+00000000000000341038590000022929    00002 000000000068R2P+0004+0000+0003+0000N                                                                  

200165383852130059636384100135341507102220101005+0000000079600+0000000013266+0000000000000                              035968000259ELEONL760030390010000068+0000000013270+0000000012869PRC+000000001287206                                                                                                 

200165383852130059636384100148074642503120101005+0000000056400+0000000009400+0000000000000                              029454000258ELEONL760030390010000068+0000000009400+0000000009118PRC+000000000911806                                                                                                 

30016538385213005963620101005000000002010120502/06+000000002266600300+000000000067900000+0000000000000+00000000219872011010403/06+000000002266600300+000000000067900000+0000000000000+00000000219872011020304/06+000000002266600300+000000000067900000+0000000000000+0000000021987+0000+0000+0000           

30016538385213005963620101005000000002011030505/06+000000002266600300+000000000067900000+0000000000000+00000000219872011040406/06+000000002266600300+000000000067900000+0000000000000+0000000021987                                                                               +0000+0000                

10016538399213001943307/10PAG20100312201010062010100920101011+0000000103000+0000000000000+000000001030000300+000000000030900000+0000000000000+0000000009991+00000000000000341038590000022929    00001 000000000012R2P+0000+0000+0000+0000N                                                                  

200165383992130019433384100127629165203020100312+0000000103000+0000000010300+0000000000000                              098945000053ELEONL760031290010000012+0000000010300+0000000009991PRC+000000000999110                                                                                                 

10016538399213001949305/06PAG20100511201010062010100920101011+0000000070800+0000000000000+000000001180000100+000000000011800000+0000000000000+0000000011682+00000000000000341038590000022929    00001 000000000045R2P+0000+0000+0000+0000N                                                                  

200165383992130019493384100154492493002420100511+0000000070800+0000000011800+0000000000000                              008437000184ELEONL760031290010000045+0000000011800+0000000011682PRC+000000001168206                                                                                                 

10016538399213001952504/10PAG20100612201010062010101120101011+0000000029000+0000000000000+000000000290000300+000000000008700000+0000000000000+0000000002813+00000000000000341038590000022929    00001 000000000065R2P+0000+0000+0000+0000N                                                                  

200165383992130019525384100174782438804320100612+0000000029000+0000000002900+0000000000000                              028375000245ELEONL760031290010000065+0000000002900+0000000002813PRC+000000000281310                                                                                                 

10016538399213001955303/06PAG20100710201010062010100920101011+0000000033300+0000000000000+000000000555000300+000000000016600000+0000000000000+0000000005384+00000000000000341038590000022929    00001 000000000087R2P+0000+0000+0000+0000N                                                                  

200165383992130019553384100190760451803020100710+0000000033300+0000000005550+0000000000000                              016966000323ELEONL760031290010000087+0000000005550+0000000005384PRC+000000000538406                                                                                                 

10016538399213001955503/03PAG20100712201010062010101120101011+0000000006490+0000000000000+000000000216300300+000000000006400000+0000000000000+0000000002099+00000000000000341038590000022929    00001 000000000088R2P+0000+0000+0000+0000N                                                                  

200165383992130019555384100191898325602020100712+0000000006490+0000000002163+0000000000000                              066837000331ELEONL760031290010000088+0000000002163+0000000002099PRC+000000000209903                                                                                                 

10016538399213001958302/03PAG20100809201010062010100920101011+0000000009901+0000000000000+000000000330000300+000000000009900000+0000000000000+0000000003201+00000000000000341038590000022929    00001 000000000106R2P+0000+0000+0000+0000N                                                                  

200165383992130019583384100147761816003320100809+0000000009901+0000000003300+0000000000000                              071670000395ELEONL760031290010000106+0000000003300+0000000003201PRC+000000000320103                                                                                                 

10016538399213001958502/03PAG20100811201010062010101120101011+0000000036400+0000000000000+000000001213300300+000000000036300000+0000000000000+0000000011770+00000000000000341038590000022929    00001 000000000108R2P+0000+0000+0000+0000N                                                                  

200165383992130019585384100186414994603820100811+0000000036400+0000000012133+0000000000000                              064021000400ELEONL760031290010000108+0000000012133+0000000011770PRC+000000001177003                                                                                                 

10016538399213001961201/02PAG20100908201010062010100920101011+0000000031800+0000000000000+000000001590000300+000000000047700000+0000000000000+0000000015423+00000000000000341038590000022929    00002 000000000118R2P+0000+0000-0001-0001N                                                                  

200165383992130019612384100191112550502420100908+0000000015900+0000000007950+0000000000000                              099023000475ELEONL760031290010000118+0000000007950+0000000007712PRC+000000000771202                                                                                                 

200165383992130019612384100192185586702420100908+0000000015900+0000000007950+0000000000000                              054691000480ELEONL760031290010000118+0000000007950+0000000007712PRC+000000000771202                                                                                                 

10016538399213001961401/03PAG20100909201010062010101020101011+0000000020490+0000000000000+000000000683000300+000000000020400000+0000000000000+0000000006626+00000000000000341038590000022929    00001 000000000118R2P+0000+0000+0000+0000N                                                                  

200165383992130019614384100149991258402820100909+0000000020490+0000000006830+0000000000000                              027641000484ELEONL760031290010000118+0000000006830+0000000006626PRC+000000000662603                                                                                                 

10016538399213001961501/03PAG20100910201010062010101120101011+0000000096400+0000000000000+000000003213400300+000000000096400000+0000000000000+0000000031170+00000000000000341038590000022929    00001 000000000118R2P+0001+0000+0000+0000N                                                                  

200165383992130019615384100145912663402420100910+0000000096400+0000000032133+0000000000000                              064773000486ELEONL760031290010000118+0000000032134+0000000031170PRC+000000003117003                                                                                                 

10016538399213005940008/10PAG20100212201010062010101120101011+0000000031900+0000000000000+000000000319000300+000000000009500000+0000000000000+0000000003095+00000000000000341038590000022929    00001 000000000085R2P+0000+0000+0000+0000N                                                                  

200165383992130059400384100135187087102220100210+0000000031900+0000000003190+0000000000000                              078206000314ELEONL760031290010000085+0000000003190+0000000003095PRC+000000000309510                                                                                                 

10016538399213005955503/10PAG20100712201010062010101120101011+0000000164880+0000000000000+000000001648800300+000000000049400000+0000000000000+0000000015994+00000000000000341038590000022929    00001 000000000088R2P+0000+0000+0000+0000N                                                                  

200165383992130059555384100183089626901220100712+0000000164880+0000000016488+0000000000000                              074116000332ELEONL760031290010000088+0000000016488+0000000015994PRC+000000001599410                                                                                                 

10016538399213005958302/10PAG20100809201010062010100920101011+0000000113900+0000000000000+000000001139000300+000000000034100000+0000000000000+0000000011049+00000000000000341038590000022929    00001 000000000107R2P+0000+0000+0000+0000N                                                                  

200165383992130059583384100142061514606320100809+0000000113900+0000000011390+0000000000000                              070853000398ELEONL760031290010000107+0000000011390+0000000011049PRC+000000001104910                                                                                                 

10016538399213005961201/03PAG20100908201010062010100920101011+0000000052900+0000000000000+000000001763400300+000000000052900000+0000000000000+0000000017105+00000000000000341038590000022929    00001 000000000118R2P+0001+0000+0000+0000N                                                                  

200165383992130059612384100168782570703520100908+0000000052900+0000000017633+0000000000000                              039677000482ELEONL760031290010000118+0000000017634+0000000017105PRC+000000001710503                                                                                                 

10016538399213006934010/10PAG20091214201010062010101120101011+0000000150772+0000000000000+000000001507700300+000000000045200000+0000000000000+0000000014625+00000000000000341038590000022929    00001 000000000042R2P+0000+0000+0000+0000N                                                                  

200165383992130069340384100178228885301120091213+0000000150772+0000000015077+0000000000000                              097242000166ELEONL760031290010000042+0000000015077+0000000014625PRC+000000001462510                                                                                                 

10016538399213006961201/04PAG20100908201010062010100920101011+0000000010250+0000000000000+000000000256400300+000000000007600000+0000000000000+0000000002488+00000000000000341038590000022929    00001 000000000118R2P+0002+0000+0002+0000N                                                                  

200165383992130069612384100135278899003420100908+0000000010250+0000000002562+0000000000000                              077317000474ELEONL760031290010000118+0000000002564+0000000002486PRC+000000000248804                                                                                                 

10016538399213007961201/06PAG20100908201010062010100920101011+0000000120000+0000000000000+000000002000000300+000000000060000000+0000000000000+0000000019400+00000000000000341038590000022929    00001 000000000118R2P+0000+0000+0000+0000N                                                                  

200165383992130079612384100143604570002920100908+0000000120000+0000000020000+0000000000000                              030284000481ELEONL760031290010000118+0000000020000+0000000019400PRC+000000001940006                                                                                                 

10016538399213008961201/10PAG20100908201010062010100920101011+0000000064400+0000000000000+000000000644000300+000000000019300000+0000000000000+0000000006247+00000000000000341038590000022929    00001 000000000118R2P+0000+0000+0000+0000N                                                                  

200165383992130089612384100189804793301320100908+0000000064400+0000000006440+0000000000000                              003902000483ELEONL760031290010000118+0000000006440+0000000006247PRC+000000000624710                                                                                                 

10066538399213001961501/02PAG20100910201010062010101120101011+0000000003900+0000000000000+000000000195000300+000000000005800000+0000000000000+0000000001892+00000000000000341038590000022929    00001 000000000118R2P+0000+0000+0000+0000N                                                                  

200665383992130019615384160603743021002620100910+0000000003900+0000000001950+0000000000000                              078567000485ELEONL760031290010000118+0000000001950+0000000001892PRC+000000000189202                                                                                                 

10066538399213005955303/03PAG20100710201010062010100920101011+0000000035900+0000000000000+000000001196600300+000000000035800000+0000000000000+0000000011608+00000000000000341038590000022929    00001 000000000087R2P+0000+0000+0000+0000N                                                                  

200665383992130059553384160602558115403220100710+0000000035900+0000000011966+0000000000000                              019271000327ELEONL760031290010000087+0000000011966+0000000011608PRC+000000001160803                                                                                                 

10016538400213001949405/10PAG20100512201010062010101020101011+0000000023000+0000000000000+000000000230000100+000000000002300000+0000000000000+0000000002277+00000000000000341038590000022929    00001 000000000056R2P+0000+0000+0000+0000N                                                                  

200165384002130019494384100135046149804720100512+0000000023000+0000000002300+0000000000000                              062266000163ELEONL760030360010000056+0000000002300+0000000002277PRC+000000000227710                                                                                                 

10016538400213001952304/05PAG20100610201010062010100920101011+0000000018000+0000000000000+000000000360000300+000000000010800000+0000000000000+0000000003492+00000000000000341038590000022929    00001 000000000063R2P+0000+0000+0000+0000N                                                                  

200165384002130019523384100186271662201920100610+0000000018000+0000000003600+0000000000000                              054492000186ELEONL760030360010000063+0000000003600+0000000003492PRC+000000000349205                                                                                                 

10016538400213001952404/10PAG20100611201010062010101020101011+0000000087000+0000000000000+000000000870000300+000000000026100000+0000000000000+0000000008439+00000000000000341038590000022929    00001 000000000064R2P+0000+0000+0000+0000N                                                                  

200165384002130019524384100151577048302320100611+0000000087000+0000000008700+0000000000000                              062070000188ELEONL760030360010000064+0000000008700+0000000008439PRC+000000000843910                                                                                                 

10016538400213001955303/04PAG20100710201010062010100920101011+0000000028500+0000000000000+000000000712500300+000000000021300000+0000000000000+0000000006912+00000000000000341038590000022929    00001 000000000072R2P+0000+0000+0000+0000N                                                                  

200165384002130019553384100135391598802820100710+0000000028500+0000000007125+0000000000000                              054646000214ELEONL760030360010000072+0000000007125+0000000006912PRC+000000000691204                                                                                                 

10016538400213001958502/02PAG20100811201010062010101120101011+0000000010990+0000000000000+000000000549500300+000000000016400000+0000000000000+0000000005331+00000000000000341038590000022929    00001 000000000004R2P+0000+0000+0000+0000N                                                                  

200165384002130019585384100187019428101320100811+0000000010990+0000000005495+0000000000000                              038201000027ELEONL760030360010000004+0000000005495+0000000005331PRC+000000000533102                                                                                                 

10016538400213001963600/02PRE20101004000000002010110400000000+0000000003290+0000000000000+000000000164500300+000000000004900000+0000000000000+0000000001596+00000000000000341038590000022929    00001 000000000008R2P+0000+0000+0000+0000N                                                                  

200165384002130019636384100135367654103220101004+0000000003290+0000000001645+0000000000000                              027443000027ELEONL760030360010000008+0000000001645+0000000001596PRC+000000000159602                                                                                                 

30016538400213001963620101004000000002010120402/02+000000000164500300+000000000004900000+0000000000000+0000000001596                                                                                                                                                              +0000                     

10016538400213005958502/03PAG20100811201010062010101120101011+0000000019989+0000000000000+000000000666300300+000000000019900000+0000000000000+0000000006464+00000000000000341038590000022929    00001 000000000004R2P+0000+0000+0000+0000N                                                                  

200165384002130059585384100142761125104020100811+0000000019989+0000000006663+0000000000000                              056037000026ELEONL760030360010000004+0000000006663+0000000006464PRC+000000000646403                                                                                                 

10016538400213005963600/03PRE20101005000000002010110500000000+0000000057900+0000000000000+000000001930000300+000000000057900000+0000000000000+0000000018721+00000000000000341038590000022929    00002 000000000009R2P+0000+0000+0000+0000N                                                                  

200165384002130059636384100135215757502020101005+0000000027900+0000000009300+0000000000000                              005040000030ELEONL760030360010000009+0000000009300+0000000009021PRC+000000000902103                                                                                                 

200165384002130059636384100135360765503220101005+0000000030000+0000000010000+0000000000000                              047191000029ELEONL760030360010000009+0000000010000+0000000009700PRC+000000000970003                                                                                                 

30016538400213005963620101005000000002010120502/03+000000001930000300+000000000057900000+0000000000000+00000000187212011010403/03+000000001930000300+000000000057900000+0000000000000+0000000018721                                                                               +0000+0000                

10066538400213001958502/04PAG20100811201010062010101120101011+0000000008000+0000000000000+000000000200000300+000000000006000000+0000000000000+0000000001940+00000000000000341038590000022929    00001 000000000004R2P+0000+0000+0000+0000N                                                                  

200665384002130019585384100601734181601920100811+0000000008000+0000000002000+0000000000000                              073010000025ELEONL760030360010000004+0000000002000+0000000001940PRC+000000000194004                                                                                                 

10016538406213001958302/03PAG20100809201010062010100920101011+0000000067700+0000000000000+000000002256600300+000000000067600000+0000000000000+0000000021890+00000000000000341038590000022929    00002 000000000002R2P+0000+0000-0001-0001N                                                                  

200165384062130019583384100123061482306820100809+0000000013900+0000000004633+0000000000000                              090821000040ELEONL760030330010000002+0000000004633+0000000004495PRC+000000000449503                                                                                                 

200165384062130019583384100151575312002120100809+0000000053800+0000000017933+0000000000000                              044475000039ELEONL760030330010000002+0000000017933+0000000017396PRC+000000001739603                                                                                                 

10016538406213001958502/03PAG20100811201010062010101120101011+0000000010800+0000000000000+000000000360000300+000000000010800000+0000000000000+0000000003492+00000000000000341038590000022929    00002 000000000002R2P+0001+0001-0001-0001N                                                                  

200165384062130019585384100163490341002420100811+0000000002900+0000000000966+0000000000000                              035765000042ELEONL760030330010000002+0000000000966+0000000000938PRC+000000000093803                                                                                                 

200165384062130019585384100163490341002420100811+0000000007900+0000000002633+0000000000000                              037274000043ELEONL760030330010000002+0000000002633+0000000002555PRC+000000000255503                                                                                                 

10016538406213005952504/10PAG20100612201010062010101120101011+0000000100000+0000000000000+000000001000000300+000000000030000000+0000000000000+0000000009700+00000000000000341038590000022929    00001 000000000001R2P+0000+0000+0000+0000N                                                                  

200165384062130059525384100181170299301020100612+0000000100000+0000000010000+0000000000000                              052233000018ELEONL760030330010000001+0000000010000+0000000009700PRC+000000000970010                                                                                                 

10016538407213001949305/10PAG20100511201010062010100920101011+0000000232500+0000000000000+000000002325000100+000000000023200000+0000000000000+0000000023018+00000000000000341038590000022929    00002 000000000049R2P+0000+0000-0001-0001N                                                                  

200165384072130019493384100135495237203220100511+0000000156600+0000000015660+0000000000000                              023916000129ELEONL760038050010000049+0000000015660+0000000015504PRC+000000001550410                                                                                                 

200165384072130019493384100179031473601120100511+0000000075900+0000000007590+0000000000000                              015294000128ELEONL760038050010000049+0000000007590+0000000007515PRC+000000000751510                                                                                                 

10016538407213001952404/10PAG20100611201010062010101020101011+0000000048600+0000000000000+000000000486000300+000000000014500000+0000000000000+0000000004715+00000000000000341038590000022929    00001 000000000058R2P+0000+0000+0000+0000N                                                                  

200165384072130019524384100126473471604420100611+0000000048600+0000000004860+0000000000000                              027418000160ELEONL760038050010000058+0000000004860+0000000004715PRC+000000000471510                                                                                                 

10016538407213001955503/06PAG20100712201010062010101120101011+0000000056000+0000000000000+000000000933300300+000000000027900000+0000000000000+0000000009054+00000000000000341038590000022929    00001 000000000005R2P+0000+0000+0000+0000N                                                                  

200165384072130019555384100179175467501020100712+0000000056000+0000000009333+0000000000000                              072732000030ELEONL760038050010000005+0000000009333+0000000009054PRC+000000000905406                                                                                                 

10016538407213001958302/02PAG20100809201010062010100920101011+0000000021910+0000000000000+000000001095500300+000000000032800000+0000000000000+0000000010627+00000000000000341038590000022929    00001 000000000012R2P+0000+0000+0000+0000N                                                                  

200165384072130019583384100186535163301320100809+0000000021910+0000000010955+0000000000000                              081358000045ELEONL760038050010000012+0000000010955+0000000010627PRC+000000001062702                                                                                                 

10016538407213001958402/02PAG20100810201010062010101020101011+0000000004200+0000000000000+000000000210000300+000000000006300000+0000000000000+0000000002037+00000000000000341038590000022929    00001 000000000013R2P+0000+0000+0000+0000N                                                                  

200165384072130019584384100189889098301720100810+0000000004200+0000000002100+0000000000000                              076020000048ELEONL760038050010000013+0000000002100+0000000002037PRC+000000000203702                                                                                                 

10016538407213001961201/03PAG20100908201010062010100920101011+0000000065800+0000000000000+000000002193400300+000000000065800000+0000000000000+0000000021276+00000000000000341038590000022929    00002 000000000019R2P+0001+0000+0000+0000N                                                                  

200165384072130019612384100180030906301120100908+0000000028900+0000000009633+0000000000000                              054768000074ELEONL760038050010000019+0000000009634+0000000009345PRC+000000000934503                                                                                                 

200165384072130019612384100182129586001420100908+0000000036900+0000000012300+0000000000000                              062793000073ELEONL760038050010000019+0000000012300+0000000011931PRC+000000001193103                                                                                                 

10016538407213001963600/02PRE20101005000000002010110500000000+0000000005980+0000000000000+000000000299000300+000000000008900000+0000000000000+0000000002901+00000000000000341038590000022929    00001 000000000026R2P+0000+0000+0000+0000N                                                                  

200165384072130019636384100183243218901820101005+0000000005980+0000000002990+0000000000000                              029546000089ELEONL760038050010000026+0000000002990+0000000002901PRC+000000000290102                                                                                                 

30016538407213001963620101005000000002010120502/02+000000000299000300+000000000008900000+0000000000000+0000000002901                                                                                                                                                              +0000                     

10016538407213005955303/03PAG20100710201010062010100920101011+0000000060300+0000000000000+000000002010000300+000000000060300000+0000000000000+0000000019497+00000000000000341038590000022929    00002 000000000004R2P+0001+0001-0001-0001N                                                                  

200165384072130059553384100151967636803520100710+0000000008900+0000000002966+0000000000000                              098707000027ELEONL760038050010000004+0000000002966+0000000002878PRC+000000000287803                                                                                                 

200165384072130059553384100173536310004820100710+0000000051400+0000000017133+0000000000000                              046278000023ELEONL760038050010000004+0000000017133+0000000016620PRC+000000001662003                                                                                                 

10016538407213005958302/05PAG20100809201010062010100920101011+0000000033000+0000000000000+000000000660000300+000000000019800000+0000000000000+0000000006402+00000000000000341038590000022929    00001 000000000012R2P+0000+0000+0000+0000N                                                                  

200165384072130059583384100141881534605520100809+0000000033000+0000000006600+0000000000000                              094143000044ELEONL760038050010000012+0000000006600+0000000006402PRC+000000000640205                                                                                                 

10016538407213005958402/10PAG20100810201010062010101020101011+0000000089000+0000000000000+000000000890000300+000000000026700000+0000000000000+0000000008633+00000000000000341038590000022929    00001 000000000013R2P+0000+0000+0000+0000N                                                                  

200165384072130059584384100155444310202020100810+0000000089000+0000000008900+0000000000000                              001779000047ELEONL760038050010000013+0000000008900+0000000008633PRC+000000000863310                                                                                                 

10016538407213005963600/03PRE20101005000000002010110500000000+0000000143500+0000000000000+000000004783400300+000000000143500000+0000000000000+0000000046399+00000000000000341038590000022929    00001 000000000026R2P+0001+0000+0000+0000N                                                                  

200165384072130059636384100134640012905820101005+0000000143500+0000000047833+0000000000000                              061293000090ELEONL760038050010000026+0000000047834+0000000046399PRC+000000004639903                                                                                                 

30016538407213005963620101005000000002010120502/03+000000004783300300+000000000143400000+0000000000000+00000000463992011010403/03+000000004783300300+000000000143400000+0000000000000+0000000046399                                                                               +0000+0000                

10016538407213006955303/10PAG20100710201010062010100920101011+0000000247000+0000000000000+000000002470000300+000000000074100000+0000000000000+0000000023959+00000000000000341038590000022929    00001 000000000004R2P+0000+0000+0000+0000N                                                                  

200165384072130069553384100134781953003820100710+0000000247000+0000000024700+0000000000000                              059177000026ELEONL760038050010000004+0000000024700+0000000023959PRC+000000002395910                                                                                                 

10016538439213001936809/10PAG20100111201010062010100920101011+0000000139900+0000000000000+000000001399000300+000000000041900000+0000000000000+0000000013571+00000000000000341038590000022929    00001 000000000013R2P+0000+0000+0000+0000N                                                                  

200165384392130019368384100150329130502620100109+0000000139900+0000000013990+0000000000000                              086232000048ELEONL760032150010000013+0000000013990+0000000013571PRC+000000001357110                                                                                                 

10016538439213001952504/10PAG20100612201010062010101120101011+0000000089900+0000000000000+000000000899000300+000000000026900000+0000000000000+0000000008721+00000000000000341038590000022929    00001 000000000002R2P+0000+0000+0000+0000N                                                                  

200165384392130019525384100168349183901020100612+0000000089900+0000000008990+0000000000000                              005417000041ELEONL760032150010000002+0000000008990+0000000008721PRC+000000000872110                                                                                                 

10016538439213001955303/04PAG20100710201010062010100920101011+0000000179390+0000000000000+000000004484700300+000000000134500000+0000000000000+0000000043502+00000000000000341038590000022929    00003 000000000003R2P+0000+0000-0001-0001N                                                                  

200165384392130019553384100168131978803820100710+0000000039900+0000000009975+0000000000000                              007335000062ELEONL760032150010000003+0000000009975+0000000009676PRC+000000000967604                                                                                                 

200165384392130019553384100170126730302620100710+0000000117990+0000000029497+0000000000000                              064157000063ELEONL760032150010000003+0000000029497+0000000028613PRC+000000002861304                                                                                                 

200165384392130019553384100187408130902420100710+0000000021500+0000000005375+0000000000000                              045841000061ELEONL760032150010000003+0000000005375+0000000005214PRC+000000000521404                                                                                                 

10016538439213001958302/10PAG20100809201010062010100920101011+0000000093400+0000000000000+000000000934000300+000000000028000000+0000000000000+0000000009060+00000000000000341038590000022929    00001 000000000003R2P+0000+0000+0000+0000N                                                                  

200165384392130019583384100135040078202720100809+0000000093400+0000000009340+0000000000000                              002490000088ELEONL760032150010000003+0000000009340+0000000009060PRC+000000000906010                                                                                                 

10016538439213001958402/10PAG20100810201010062010101020101011+0000000040800+0000000000000+000000000408000300+000000000012200000+0000000000000+0000000003958+00000000000000341038590000022929    00001 000000000003R2P+0000+0000+0000+0000N                                                                  

200165384392130019584384100127100431003520100810+0000000040800+0000000004080+0000000000000                              057790000091ELEONL760032150010000003+0000000004080+0000000003958PRC+000000000395810                                                                                                 

10016538439213001958502/06PAG20100811201010062010101120101011+0000000021900+0000000000000+000000000365000300+000000000010900000+0000000000000+0000000003541+00000000000000341038590000022929    00001 000000000003R2P+0000+0000+0000+0000N                                                                  

200165384392130019585384100170748251601620100811+0000000021900+0000000003650+0000000000000                              081793000092ELEONL760032150010000003+0000000003650+0000000003541PRC+000000000354106                                                                                                 

10016538439213001961501/03PAG20100910201010062010101120101011+0000000003990+0000000000000+000000000133000300+000000000003900000+0000000000000+0000000001291+00000000000000341038590000022929    00001 000000000001R2P+0000+0000+0000+0000N                                                                  

200165384392130019615384100170480798801920100910+0000000003990+0000000001330+0000000000000                              015050000014ELEONL760032150010000001+0000000001330+0000000001291PRC+000000000129103                                                                                                 

10016538439213005933810/10PAG20091212201010062010100920101011+0000000052500+0000000000000+000000000525000300+000000000015700000+0000000000000+0000000005093+00000000000000341038590000022929    00001 000000000004R2P+0000+0000+0000+0000N                                                                  

200165384392130059338384100134506510502020091211+0000000052500+0000000005250+0000000000000                              083453000025ELEONL760032150010000004+0000000005250+0000000005093PRC+000000000509310                                                                                                 

10066538439213001958302/03PAG20100809201010062010100920101011+0000000019900+0000000000000+000000000663300300+000000000019800000+0000000000000+0000000006435+00000000000000341038590000022929    00001 000000000003R2P+0000+0000+0000+0000N                                                                  

200665384392130019583384100602173442801520100809+0000000019900+0000000006633+0000000000000                              042083000090ELEONL760032150010000003+0000000006633+0000000006435PRC+000000000643503                                                                                                 

10066538439213001961401/03PAG20100909201010062010101020101011+0000000031900+0000000000000+000000001063400300+000000000031900000+0000000000000+0000000010315+00000000000000341038590000022929    00001 000000000001R2P+0001+0000+0000+0000N                                                                  

200665384392130019614384100604876939701220100909+0000000031900+0000000010633+0000000000000                              087152000013ELEONL760032150010000001+0000000010634+0000000010315PRC+000000001031503                                                                                                 

10016541914213001940008/10PAG20100212201010062010101120101011+0000000023900+0000000000000+000000000239000320+000000000007600000+0000000000000+0000000002314+00000000000000341038590000022929    00001 000000000046R2P+0000+0000+0000+0000N                                                                  

200165419142130019400384100194504751501920100212+0000000023900+0000000002390+0000000000000                              091981000159ELEONL760032670010000046+0000000002390+0000000002314PRC+000000000231410                                                                                                 

10016541914213001946406/10PAG20100412201010062010101020101011+0000000113800+0000000000000+000000001138000300+000000000034100000+0000000000000+0000000011039+00000000000000341038590000022929    00002 000000000067R2P+0000+0000+0000+0000N                                                                  

200165419142130019464384100167380567901020100412+0000000034000+0000000003400+0000000000000                              084721000220ELEONL760032670010000067+0000000003400+0000000003298PRC+000000000329810                                                                                                 

200165419142130019464384100179780913701320100412+0000000079800+0000000007980+0000000000000                              002781000221ELEONL760032670010000067+0000000007980+0000000007741PRC+000000000774110                                                                                                 

10016541914213001946606/09PAG20100413201010062010101120101011+0000000039600+0000000000000+000000000440000300+000000000013200000+0000000000000+0000000004268+00000000000000341038590000022929    00002 000000000068R2P+0000+0000+0000+0000N                                                                  

200165419142130019466384100196696160701020100413+0000000019800+0000000002200+0000000000000                              016952000223ELEONL760032670010000068+0000000002200+0000000002134PRC+000000000213409                                                                                                 

200165419142130019466384100196696160701020100413+0000000019800+0000000002200+0000000000000                              018054000224ELEONL760032670010000068+0000000002200+0000000002134PRC+000000000213409                                                                                                 

10016541914213001949305/06PAG20100511201010062010100920101011+0000000024200+0000000000000+000000000403300100+000000000004000000+0000000000000+0000000003993+00000000000000341038590000022929    00001 000000000084R2P+0000+0000+0000+0000N                                                                  

200165419142130019493384100177317086101020100511+0000000024200+0000000004033+0000000000000                              031977000274ELEONL760032670010000084+0000000004033+0000000003993PRC+000000000399306                                                                                                 

10016541914213001952404/04PAG20100611201010062010101020101011+0000000026100+0000000000000+000000000652500300+000000000019500000+0000000000000+0000000006330+00000000000000341038590000022929    00001 000000000096R2P+0000+0000+0000+0000N                                                                  

200165419142130019524384100161424678201020100611+0000000026100+0000000006525+0000000000000                              028131000320ELEONL760032670010000096+0000000006525+0000000006330PRC+000000000633004                                                                                                 

10016541914213001955303/10PAG20100710201010062010100920101011+0000000170000+0000000000000+000000001700000300+000000000051000000+0000000000000+0000000016490+00000000000000341038590000022929    00001 000000000009R2P+0000+0000+0000+0000N                                                                  

200165419142130019553384100147196779102520100710+0000000170000+0000000017000+0000000000000                              081511000034ELEONL760032670010000009+0000000017000+0000000016490PRC+000000001649010                                                                                                 

10016541914213001958302/03PAG20100809201010062010100920101011+0000000056900+0000000000000+000000001896600300+000000000056800000+0000000000000+0000000018398+00000000000000341038590000022929    00002 000000000026R2P+0000+0000-0001-0001N                                                                  

200165419142130019583384100147502802102620100809+0000000051400+0000000017133+0000000000000                              058703000085ELEONL760032670010000026+0000000017133+0000000016620PRC+000000001662003                                                                                                 

200165419142130019583384100174481284201720100809+0000000005500+0000000001833+0000000000000                              092379000086ELEONL760032670010000026+0000000001833+0000000001779PRC+000000000177903                                                                                                 

10016541914213001958402/03PAG20100810201010062010101020101011+0000000014902+0000000000000+000000000496700300+000000000014900000+0000000000000+0000000004818+00000000000000341038590000022929    00001 000000000027R2P+0000+0000+0000+0000N                                                                  

200165419142130019584384100150921594502620100810+0000000014902+0000000004967+0000000000000                              060207000088ELEONL760032670010000027+0000000004967+0000000004818PRC+000000000481803                                                                                                 

10016541914213001958502/10PAG20100811201010062010101120101011+0000000091200+0000000000000+000000000912000300+000000000027300000+0000000000000+0000000008847+00000000000000341038590000022929    00001 000000000028R2P+0000+0000+0000+0000N                                                                  

200165419142130019585384100164261230503020100811+0000000091200+0000000009120+0000000000000                              052031000090ELEONL760032670010000028+0000000009120+0000000008847PRC+000000000884710                                                                                                 

10016541914213001961201/02PAG20100908201010062010100920101011+0000000012500+0000000000000+000000000625000300+000000000018700000+0000000000000+0000000006063+00000000000000341038590000022929    00001 000000000013R2P+0000+0000+0000+0000N                                                                  

200165419142130019612384100146780540503720100908+0000000012500+0000000006250+0000000000000                              042305000043ELEONL760032670010000013+0000000006250+0000000006063PRC+000000000606302                                                                                                 

10016541914213001961401/03PAG20100909201010062010101020101011+0000000019910+0000000000000+000000000663800300+000000000019900000+0000000000000+0000000006439+00000000000000341038590000022929    00001 000000000014R2P+0002+0000+0002+0000N                                                                  

200165419142130019614384100148530982102620100909+0000000019910+0000000006636+0000000000000                              067625000046ELEONL760032670010000014+0000000006638+0000000006437PRC+000000000643903                                                                                                 

10016541914213001961501/03PAG20100910201010062010101120101011+0000000078810+0000000000000+000000002627000300+000000000078800000+0000000000000+0000000025482+00000000000000341038590000022929    00002 000000000015R2P+0001-0002+0000-0002N                                                                  

200165419142130019615384100144242656702820100910+0000000019910+0000000006636+0000000000000                              080962000050ELEONL760032670010000015+0000000006638+0000000006437PRC+000000000643903                                                                                                 

200165419142130019615384100163337632701320100910+0000000058900+0000000019633+0000000000000                              024163000051ELEONL760032670010000015+0000000019634+0000000019045PRC+000000001904503                                                                                                 

10016541914213001963600/02PRE20101005000000002010110500000000+0000000113300+0000000000000+000000005665000300+000000000169900000+0000000000000+0000000054951+00000000000000341038590000022929    00001 000000000032R2P+0000+0000+0000+0000N                                                                  

200165419142130019636384100134903692402420101005+0000000113300+0000000056650+0000000000000                              080030000105ELEONL760032670010000032+0000000056650+0000000054951PRC+000000005495102                                                                                                 

30016541914213001963620101005000000002010120502/02+000000005665000300+000000000169900000+0000000000000+0000000054951                                                                                                                                                              +0000                     

10016541914213005934110/10PAG20091214201010062010101120101011+0000000023300+0000000000000+000000000233000320+000000000007400000+0000000000000+0000000002256+00000000000000341038590000022929    00001 000000000015R2P+0000+0000+0000+0000N                                                                  

200165419142130059341384100143936662102620091214+0000000023300+0000000002330+0000000000000                              005856000058ELEONL760032670010000015+0000000002330+0000000002256PRC+000000000225610                                                                                                 

10016541914213005939908/10PAG20100211201010062010101020101011+0000000059000+0000000000000+000000000590000320+000000000018800000+0000000000000+0000000005712+00000000000000341038590000022929    00001 000000000045R2P+0000+0000+0000+0000N                                                                  

200165419142130059399384100147194849503020100211+0000000059000+0000000005900+0000000000000                              033832000156ELEONL760032670010000045+0000000005900+0000000005712PRC+000000000571210                                                                                                 

10016541914213005946606/10PAG20100413201010062010101120101011+0000000014000+0000000000000+000000000140000300+000000000004200000+0000000000000+0000000001358+00000000000000341038590000022929    00001 000000000068R2P+0000+0000+0000+0000N                                                                  

200165419142130059466384100183305620201320100413+0000000014000+0000000001400+0000000000000                              053559000225ELEONL760032670010000068+0000000001400+0000000001358PRC+000000000135810                                                                                                 

10016541914213005949305/10PAG20100511201010062010100920101011+0000000077000+0000000000000+000000000770000100+000000000007700000+0000000000000+0000000007623+00000000000000341038590000022929    00001 000000000084R2P+0000+0000+0000+0000N                                                                  

200165419142130059493384100158481615202320100511+0000000077000+0000000007700+0000000000000                              008516000276ELEONL760032670010000084+0000000007700+0000000007623PRC+000000000762310                                                                                                 

10016541914213005949505/05PAG20100513201010062010101120101011+0000000014900+0000000000000+000000000298000100+000000000002900000+0000000000000+0000000002951+00000000000000341038590000022929    00001 000000000085R2P+0000+0000+0000+0000N                                                                  

200165419142130059495384100152075267602620100513+0000000014900+0000000002980+0000000000000                              004781000279ELEONL760032670010000085+0000000002980+0000000002951PRC+000000000295105                                                                                                 

10016541914213005952304/07PAG20100610201010062010100920101011+0000000005300+0000000000000+000000000075700300+000000000002200000+0000000000000+0000000000735+00000000000000341038590000022929    00001 000000000095R2P+0000+0000+0000+0000N                                                                  

200165419142130059523384100150735405002020100610+0000000005300+0000000000757+0000000000000                              065619000317ELEONL760032670010000095+0000000000757+0000000000735PRC+000000000073507                                                                                                 

10016541914213005961201/10PAG20100908201010062010100920101011+0000000072100+0000000000000+000000000721000300+000000000021600000+0000000000000+0000000006994+00000000000000341038590000022929    00002 000000000013R2P+0000+0000+0000+0000N                                                                  

200165419142130059612384100146783930007920100908+0000000044100+0000000004410+0000000000000                              049778000042ELEONL760032670010000013+0000000004410+0000000004278PRC+000000000427810                                                                                                 

200165419142130059612384100197844782201620100908+0000000028000+0000000002800+0000000000000                              068596000044ELEONL760032670010000013+0000000002800+0000000002716PRC+000000000271610                                                                                                 

10016541914213005961501/06PAG20100910201010062010101120101011+0000000027700+0000000000000+000000000462000300+000000000013800000+0000000000000+0000000004482+00000000000000341038590000022929    00001 000000000015R2P+0004+0000+0004+0000N                                                                  

200165419142130059615384100147194091502020100910+0000000027700+0000000004616+0000000000000                              052330000052ELEONL760032670010000015+0000000004620+0000000004478PRC+000000000448206                                                                                                 

10016541914213005963600/03PRE20101005000000002010110500000000+0000000009900+0000000000000+000000000330000300+000000000009900000+0000000000000+0000000003201+00000000000000341038590000022929    00001 000000000032R2P+0000+0000+0000+0000N                                                                  

200165419142130059636384100195785142001020101005+0000000009900+0000000003300+0000000000000                              037110000104ELEONL760032670010000032+0000000003300+0000000003201PRC+000000000320103                                                                                                 

30016541914213005963620101005000000002010120502/03+000000000330000300+000000000009900000+0000000000000+00000000032012011010403/03+000000000330000300+000000000009900000+0000000000000+0000000003201                                                                               +0000+0000                

10016541914213006933810/10PAG20091212201010062010100920101011+0000000127800+0000000000000+000000001278000320+000000000040800000+0000000000000+0000000012372+00000000000000341038590000022929    00004 000000000014R2P+0000+0000+0000+0000N                                                                  

200165419142130069338384100146796535602320091212+0000000025000+0000000002500+0000000000000                              036114000055ELEOFF760032670010000014+0000000002500+0000000002420PRC+000000000242010                                                                                                 

200165419142130069338384100164000267401120091212+0000000028500+0000000002850+0000000000000                              024721000054ELEONL760032670010000014+0000000002850+0000000002759PRC+000000000275910                                                                                                 

200165419142130069338384100164000267401120091212+0000000034300+0000000003430+0000000000000                              023969000053ELEONL760032670010000014+0000000003430+0000000003321PRC+000000000332110                                                                                                 

200165419142130069338384100169281108501620091212+0000000040000+0000000004000+0000000000000                              010200000052ELEONL760032670010000014+0000000004000+0000000003872PRC+000000000387210                                                                                                 

10016541914213006949505/12PAG20100513201010062010101120101011+0000000033900+0000000000000+000000000282500100+000000000002800000+0000000000000+0000000002797+00000000000000341038590000022929    00001 000000000085R2P+0000+0000+0000+0000N                                                                  

200165419142130069495384100156967693003220100513+0000000033900+0000000002825+0000000000000                              094570000278ELEONL760032670010000085+0000000002825+0000000002797PRC+000000000279712                                                                                                 

10016541914213006952304/10PAG20100610201010062010100920101011+0000000010700+0000000000000+000000000107000300+000000000003200000+0000000000000+0000000001038+00000000000000341038590000022929    00001 000000000095R2P+0000+0000+0000+0000N                                                                  

200165419142130069523384100146806786602620100610+0000000010700+0000000001070+0000000000000                              094259000316ELEONL760032670010000095+0000000001070+0000000001038PRC+000000000103810                                                                                                 

10066541914213001961401/03PAG20100909201010062010101020101011+0000000029200+0000000000000+000000000973400300+000000000029200000+0000000000000+0000000009442+00000000000000341038590000022929    00001 000000000014R2P+0001+0000+0000+0000N                                                                  

200665419142130019614384100601167546101320100909+0000000029200+0000000009733+0000000000000                              005898000048ELEONL760032670010000014+0000000009734+0000000009442PRC+000000000944203                                                                                                 

10016703954213001940008/10PAG20100212201010062010101120101011+0000000059000+0000000000000+000000000590000300+000000000017700000+0000000000000+0000000005723+00000000000000341038590000022929    00001 000000000098R2P+0000+0000+0000+0000N                                                                  

200167039542130019400384100183646452201920100211+0000000059000+0000000005900+0000000000000                              042856000322ELEONL760030260010000098+0000000005900+0000000005723PRC+000000000572310                                                                                                 

10016703954213001949405/06PAG20100512201010062010101020101011+0000000049800+0000000000000+000000000830000100+000000000008300000+0000000000000+0000000008217+00000000000000341038590000022929    00001 000000000144R2P+0000+0000+0000+0000N                                                                  

200167039542130019494384100171723430201620100512+0000000049800+0000000008300+0000000000000                              016002000461ELEONL760030260010000144+0000000008300+0000000008217PRC+000000000821706                                                                                                 

10016703954213001955303/03PAG20100710201010062010100920101011+0000000080350+0000000000000+000000002678300300+000000000080300000+0000000000000+0000000025980+00000000000000341038590000022929    00002 000000000002R2P+0001+0001+0000+0000N                                                                  

200167039542130019553384100155828746602320100710+0000000032900+0000000010966+0000000000000                              029211000064ELEONL760030260010000002+0000000010966+0000000010638PRC+000000001063803                                                                                                 

200167039542130019553384100170448967601220100710+0000000047450+0000000015816+0000000000000                              002945000065ELEONL760030260010000002+0000000015816+0000000015342PRC+000000001534203                                                                                                 

10016703954213001955503/03PAG20100712201010062010101120101011+0000000051280+0000000000000+000000001709300300+000000000051200000+0000000000000+0000000016581+00000000000000341038590000022929    00003 000000000002R2P+0001+0001-0001-0001N                                                                  

200167039542130019555384100123356245002620100712+0000000022900+0000000007633+0000000000000                              036859000070ELEONL760030260010000002+0000000007633+0000000007405PRC+000000000740503                                                                                                 

200167039542130019555384100128745720403020100712+0000000010700+0000000003566+0000000000000                              089234000068ELEONL760030260010000002+0000000003566+0000000003460PRC+000000000346003                                                                                                 

200167039542130019555384100185515126702720100712+0000000017680+0000000005893+0000000000000                              008658000066ELEONL760030260010000002+0000000005893+0000000005717PRC+000000000571703                                                                                                 

10016703954213001958402/03PAG20100810201010062010101020101011+0000000030000+0000000000000+000000001000000300+000000000030000000+0000000000000+0000000009700+00000000000000341038590000022929    00001 000000000003R2P+0000+0000+0000+0000N                                                                  

200167039542130019584384100179659936801320100810+0000000030000+0000000010000+0000000000000                              075271000134ELEONL760030260010000003+0000000010000+0000000009700PRC+000000000970003                                                                                                 

10016703954213001961201/03PAG20100908201010062010100920101011+0000000017902+0000000000000+000000000596800300+000000000017900000+0000000000000+0000000005789+00000000000000341038590000022929    00001 000000000004R2P+0001+0000+0001+0000N                                                                  

200167039542130019612384100126622175902420100908+0000000017902+0000000005967+0000000000000                              052285000196ELEONL760030260010000004+0000000005968+0000000005788PRC+000000000578903                                                                                                 

10016703954213001961501/06PAG20100910201010062010101120101011+0000000051080+0000000000000+000000000851500300+000000000025500000+0000000000000+0000000008260+00000000000000341038590000022929    00001 000000000004R2P+0002+0000+0002+0000N                                                                  

200167039542130019615384100122524063505620100910+0000000051080+0000000008513+0000000000000                              091500000198ELEONL760030260010000004+0000000008515+0000000008258PRC+000000000826006                                                                                                 

10016703954213005933810/10PAG20091212201010062010100920101011+0000000073040+0000000000000+000000000730400300+000000000021900000+0000000000000+0000000007085+00000000000000341038590000022929    00002 000000000069R2P+0000+0000+0000+0000N                                                                  

200167039542130059338384100160708893001120091211+0000000061690+0000000006169+0000000000000                              090158000223ELEONL760030260010000069+0000000006169+0000000005984PRC+000000000598410                                                                                                 

200167039542130059338384100166622915303020091211+0000000011350+0000000001135+0000000000000                              014519000224ELEONL760030260010000069+0000000001135+0000000001101PRC+000000000110110                                                                                                 

10016703954213005933910/10PAG20091213201010062010101020101011+0000000029000+0000000000000+000000000290000300+000000000008700000+0000000000000+0000000002813+00000000000000341038590000022929    00001 000000000070R2P+0000+0000+0000+0000N                                                                  

200167039542130059339384100139232702101020091212+0000000029000+0000000002900+0000000000000                              057177000230ELEONL760030260010000070+0000000002900+0000000002813PRC+000000000281310                                                                                                 

10016703954213005934010/10PAG20091214201010062010101120101011+0000000206800+0000000000000+000000002068000300+000000000062000000+0000000000000+0000000020060+00000000000000341038590000022929    00002 000000000071R2P+0000+0000-0001-0001N                                                                  

200167039542130059340384100126602832003820091213+0000000126900+0000000012690+0000000000000                              042628000233ELEONL760030260010000071+0000000012690+0000000012310PRC+000000001231010                                                                                                 

200167039542130059340384100182498506901220091213+0000000079900+0000000007990+0000000000000                              096227000232ELEONL760030260010000071+0000000007990+0000000007751PRC+000000000775110                                                                                                 

10016703954213005955503/10PAG20100712201010062010101120101011+0000000163190+0000000000000+000000001631900300+000000000048900000+0000000000000+0000000015830+00000000000000341038590000022929    00003 000000000002R2P+0000+0000-0001-0001N                                                                  

200167039542130059555384100122149297402020100712+0000000039000+0000000003900+0000000000000                              047151000071ELEONL760030260010000002+0000000003900+0000000003783PRC+000000000378310                                                                                                 

200167039542130059555384100123356245002620100712+0000000057900+0000000005790+0000000000000                              036297000069ELEONL760030260010000002+0000000005790+0000000005617PRC+000000000561710                                                                                                 

200167039542130059555384100127690069102020100712+0000000066290+0000000006629+0000000000000                              078219000067ELEONL760030260010000002+0000000006629+0000000006431PRC+000000000643110                                                                                                 

10016703954213005961201/05PAG20100908201010062010100920101011+0000000015000+0000000000000+000000000300000300+000000000009000000+0000000000000+0000000002910+00000000000000341038590000022929    00001 000000000004R2P+0000+0000+0000+0000N                                                                  

200167039542130059612384100122540794703620100908+0000000015000+0000000003000+0000000000000                              092124000195ELEONL760030260010000004+0000000003000+0000000002910PRC+000000000291005                                                                                                 

